:100000000C942A000C943F000C943F000C943F0089
:100010000C943F000C943F000C943F000C943F0064
:100020000C943F000C943F000C943F000C943F0054
:100030000C943F000C943F000C943F000C943F0044
:100040000C943F000C943F000C943F000C943F0034
:100050000C943F0011241FBECFE5D8E0DEBFCDBF1A
:1000600010E0A0E6B0E0EAE1F2E002C005900D92F7
:10007000A437B107D9F70E9441000C940B010C94EE
:1000800000003F924F925F926F927F928F929F9269
:10009000AF92BF92CF92DF92EF92FF920F931F9396
:1000A000DF93CF93CDB7DEB76C970FB6F894DEBF72
:1000B0000FBECDBF80E88ABB17BA86E084BBDE01E5
:1000C0001196E0E6F0E084E101900D928150E1F7B5
:1000D0000F2EF4E66F2E7724F02DEAE0F0E03324C3
:1000E000689432F80F2EF9E14F2E5524F02D4C0E66
:1000F0005D1E8E010D5E1F4F1C8F0B8F42E00F2E79
:10010000F7E0AF2EBB24F02D989BFECFC6B2DD24C6
:100110008C2D9D2DB3010E94E4007B01BF010E9444
:10012000E400DB01AA0FBB1F21E030E02C0F3D1FD4
:10013000A20FB31F8D909C908C2D9D2DBF010E940E
:10014000E400DC01AA0FBB1FA20FB31F8D919C918D
:10015000D701AA0FBB1FA20FB31F6D917C917E8B9D
:100160006D8B988E8F8A9A8F898F35BAD2012AC06B
:100170006D917C911197082E02C0759567950A9430
:10018000E2F76BBB45BB0FEF19EF20E001501040C9
:100190002040E1F700C0000015BA0FEF19EF20E092
:1001A000015010402040E1F700C0000001971FEF10
:1001B0008F3F9107E9F612972B8D3C8DA217B3075D
:1001C00009F4A2CFC501D4CF97FB092E07260AD088
:1001D00077FD04D00CD006D000201AF470956195FC
:1001E0007F4F0895F6F7909581959F4F0895AA1B2C
:1001F000BB1B51E107C0AA1FBB1FA617B70710F012
:10020000A61BB70B881F991F5A95A9F78095909543
:0A021000BC01CD010895F894FFCF62
:10021A003F0006005B004F0066006D007D0007008E
:04022A007F006F00E2
:00000001FF
